:100800007F3812090F1209007F0112090F12090027
:100810007F0C12090F1209007F0612090F1209003E
:100820007F8112090F120900C29020940B7F3112B0
:10083000091D1209001208E320950B7F3212091DD1
:100840001209001208E320960B7F3312091D1209CA
:10085000001208E3D290C29120940B7F3412091D3C
:100860001209001208E320950B7F3512091D1209A9
:10087000001208E320960B7F3612091D12090012A0
:1008800008E3D291C29220940B7F3712091D1209FE
:10089000001208E320950B7F3812091D120900127F
:1008A00008E320960B7F3912091D1209001208E394
:1008B000D292C29320940B7F2A12091D12090012B2
:1008C00008E320950B7F3012091D1209001208E37E
:1008D00020960B7F2312091D1209001208E3D29300
:0308E000020828E3
:0E090F008FA0C2B0C2B1D2B2120900C2B22291
:0E091D008FA0D2B0C2B1D2B2120900C2B22273
:0E090000E4FFFE0FBF00010EBE27F8BF10F58A
:01090E0022C6
:1008E300E4FFFEE4FDFC0DBD00010CBC07F8BDD028
:0C08F300F50FBF00010EEF64C84E70E767
:0108FF0022D6
:0300000002092BC7
:0C092B00787FE4F6D8FD75810702080013
:00000001FF
