:100800007F381208681208447F0F120868120844E3
:100810007F011208681208447F0612086812084413
:100820007FC71208681208447F4A12087A120844E7
:100830007F4F12087A1208447F5912087A7F327E5D
:040840000002084862
:100868008FB0C2A0C2A1D2A27F017E00120848C2E6
:02087800A222BA
:10087A008FB0D2A0C2A1D2A27F017E00120848C2C4
:02088A00A222A8
:040844007F327E0081
:10084800E4FDFCC3ED9FEC9E5015E4FBFA0BBB00E6
:0F085800010ABA04F8BBFBF50DBD00010C80E4EA
:01086700226E
:0300000002088C67
:0C088C00787FE4F6D8FD758107020800B3
:00000001FF
