:10080000E4F590C292C291C290D290900000AF8263
:10081000AE83E4FCFD7B607AEAF9F8D312089D40D0
:1008200003A380EAE4F583F582AF82AE83E4FCFDA6
:100830007B607AEAF9F8D312089D4003A380EAC2EC
:1008400090D291E4F583F582AF82AE83E4FCFD7B28
:10085000607AEAF9F8D312089D4003A380EAC291B6
:10086000D292E4F583F582AF82AE83E4FCFD7B6037
:100870007AEAF9F8D312089D4003A380EAE4F583ED
:10088000F582AF82AE83E4FCFD7B607AEAF9F8D3AF
:0D08900012089D4003A380EAC292020809ED
:030000000208B340
:0C08B300787FE4F6D8FD7581070208008C
:10089D00EB9FF5F0EA9E42F0E99D42F0EC6480C8D2
:0608AD0064809845F02272
:00000001FF
