:0A08CA0042484156414E20524200C0
:100800007F3812089A12085D7F0C12089A12085D50
:100810007F0E12089A12085D7F0112089A12085D75
:100820007F8012089A12085D7BFF7A0879CA020855
:010830003196
:10089A008FB0C2A0C2A1D2A27F017E00120861C29B
:0208AA00A22288
:1008AC008FB0D2A0C2A1D2A27F017E00120861C279
:0208BC00A22276
:100831008B088A09890AAB08AA09A90A12088160EA
:100841001A050AE50A7002050914F9120881FF1256
:0C08510008AC7F327E0012086180DB22C0
:04085D007F057E0095
:10086100E4FDFCC3ED9FEC9E5015E4FBFA0BBB00CD
:0F087100010ABA04F8BBFBF50DBD00010C80E4D1
:010880002255
:030000000208BE35
:0C08BE00787FE4F6D8FD75810A0208007E
:10088100BB010689828A83E0225002E722BBFE0275
:09089100E32289828A83E49322A8
:00000001FF
