:100AA40050415353574F52442050524F544543548E
:100AB400494F4E0053595354454D00454E544552E9
:100AC4002050415353574F52440050415353574FB2
:100AD4005244204D415443484544005041535357D8
:0A0AE4004F52442057524F4E470076
:10080000E4F5A07F38120B657F01120B657F101293
:100810000B657F0C120B657F81120B657BFF7A0ADB
:1008200079A47D13120AEE7FC0120B657BFF7A0A52
:1008300079B87D06120AEE7F01120B657BFF7A0AFA
:1008400079BF7D0E120AEE7FC0120B65C290209414
:100850002974082510F87631120B48120B48120B38
:1008600048120B48120B48120B48120B48120B4847
:10087000120B487F2A120B73051020952974082546
:1008800010F87632120B48120B48120B48120B4824
:10089000120B48120B48120B48120B48120B487FE0
:1008A0002A120B73051020962974082510F8763348
:1008B000120B48120B48120B48120B48120B48122D
:1008C0000B48120B48120B48120B487F2A120B736D
:1008D0000510D290C29120942974082510F876341E
:1008E000120B48120B48120B48120B48120B4812FD
:1008F0000B48120B48120B48120B487F2A120B733D
:10090000051020952974082510F87635120B481229
:100910000B48120B48120B48120B48120B48120BD3
:1009200048120B48120B487F2A120B7305102096B1
:100930002974082510F87636120B48120B48120B52
:1009400048120B48120B48120B48120B48120B4866
:10095000120B487F2A120B730510D291C292209479
:100960002974082510F87637120B48120B48120B21
:1009700048120B48120B48120B48120B48120B4836
:10098000120B487F2A120B73051020952974082535
:1009900010F87638120B48120B48120B48120B480D
:1009A000120B48120B48120B48120B48120B487FCF
:1009B0002A120B73051020962974082510F8763931
:1009C000120B48120B48120B48120B48120B48121C
:1009D0000B48120B48120B48120B487F2A120B735C
:1009E0000510D292C29320942974082510F8762A13
:1009F000120B48120B48120B48120B48120B4812EC
:100A00000B48120B48120B48120B487F2A120B732B
:100A1000051020952974082510F87630120B48121D
:100A20000B48120B48120B48120B48120B48120BC2
:100A300048120B48120B487F2A120B7305102096A0
:0F0A400009120A4F120B48120B48D29302084CAE
:0E0B65008FA0C2B0C2B1D2B2120B48C2B222EF
:0E0B73008FA0D2B0C2B1D2B2120B48C2B222D1
:080AEE008B118A1289138D148B
:100AF600E4F515E515C39514501AAB11AA12A913FE
:100B0600851582758300120B1BFF120B73120B489F
:040B1600051580DF62
:010B1A0022B8
:100B4800E4FFFE0FBF00010EBE0FF8BFA0F5E4FFE3
:0C0B5800FE0FBF00010EEF64644E70F54C
:010B6400226E
:100A4F00E5086431703BE50964337035E50A6431BC
:100A5F00702FE50B64327029E50C64327023E50DBD
:100A6F006430701DE50EB43018E50FB43413D2B3F3
:100A7F00C2B47F01120B657BFF7A0A79CE7D10809D
:100A8F000D7F01120B657BFF7A0A79DF7D0E120A4B
:050A9F00EE120B4822DD
:03000000020B816F
:0C0B8100787FE4F6D8FD758115020800AD
:100B1B00BB010CE58229F582E5833AF583E022508F
:100B2B0006E92582F8E622BBFE06E92582F8E222D9
:0D0B3B00E58229F582E5833AF583E49322F3
:00000001FF
