:100DF10077616974696E672E2E004C45443120423B
:100E01004C494E4B3A004C45443220424C494E4BE2
:050E11003A0025640019
:080EA700020C0001020E000123
:03000B00020E5989
:100E5900C0E00509E509700205080511E5117002F0
:050E69000510D0E0328D
:03001B00020E6E64
:100E6E00C0E0050BE50B7002050A0513E5137002D1
:050E7E000512D0E03276
:100B5C00D2A3D2A4C290C294758911E4F58CF58A03
:100B6C00F58DF58B75A88A7F38120E83120E167FC1
:100B7C0001120E83120E167F0C120E83120E167FAC
:100B8C0080120E83120E167BFF7A0D79F1120DA2D4
:100B9C007F01120E837F80120E837BFF7A0D79FB0F
:100BAC00120DA27FC0120E837BFF7A0E7907120DF5
:100BBC00A220A304D290D28CE511640E4510703B98
:100BCC007F8C120E83E4F510F511D3E50D943CE502
:100BDC000C940050167F8C120E83050DE50DAE0C97
:100BEC007002050C14FF120E3A8010750C00750D76
:100BFC00017F8D120E837F20120E95E509B44D0EE8
:100C0C00E508B40309C290E4F508F509C28C20A4E8
:100C1C0004D294D28EE513640E451270457FCC122B
:100C2C000E83E4F512F513D3E50F9478E50E9400DA
:100C3C0050167FCC120E83050FE50FAE0E70020519
:100C4C000E14FF120E3A801A750E00750F017FCD2F
:100C5C00120E837F20120E957FCE120E837F2012F0
:100C6C000E95E50B649A7004E50A64066003020BAA
:0C0C7C00BDC294F50AF50BC28E020BBD40
:100E83008FB0C2A0C2A1D2A27F017E00120E1AC2ED
:020E9300A22299
:100E95008FB0D2A0C2A1D2A27F017E00120E1AC2CB
:020EA500A22287
:100DA2008B2C8A2D892EAB2CAA2DA92E120C886091
:100DB20016052EE52E7002052D14F9120C88FF126D
:080DC2000E95120E1680DF22CF
:040E16007F057E00D6
:100E1A00E4FDFCC3ED9FEC9E5015E4FBFA0BBB000E
:0F0E2A00010ABA04F8BBFBF50DBD00010C80E412
:010E39002296
:100E3A00752FFF75300E7531138E328F337B007A22
:0F0E4A0000792212085C7B007A007922020DA247
:03000000020D16D8
:0C0D1600787FE4F6D8FD75813F020D5D8A
:100C8800BB010689828A83E0225002E722BBFE026A
:090C9800E32289828A83E493229D
:10080000E53B242FF8E6053B22782C300702782FB1
:10081000E475F001120CE0020C882000EB7F2ED270
:10082000008018EF540F2490D43440D4FF30040BD0
:10083000EF24BFB41A0050032461FFE53C600215A9
:100840003C053FE53F7002053E30070D782CE4750E
:10085000F001120CE0EF020CCE020DCA7403D207B5
:100860008003E4C207F53B8B2C8A2D892EE4F53CEE
:10087000F53EF53FE53C60077F2012083B80F575AB
:100880003DFFC201C200C202C203C205C206C208C5
:10089000120809FF700D3007057F0012084CAF3FAA
:1008A000AE3E22B4255FC2D5C204120809FF24D08F
:1008B000B40A00501A75F00A783C30D50508B6FF26
:1008C0000106C6A426F620D5047002D20380D924DE
:1008D000CFB41A00EF5004C2E5D204020A4CD20190
:1008E00080C6D20080C0D20280BCD2D580BAD205E8
:1008F00080B47F2012083B2002077401B53C004001
:10090000F1120800FF12083B020874D208D20680D8
:1009100095120800FB120800FA120800F94A4B7001
:1009200006791D7A0B7BFF20022EE53C602A7E00B3
:100930008E82758300120CA160060EEE653D70F08C
:10094000C2D5EBC0E0EAC0E0E9C0E0EE120A93D005
:10095000E0F9D0E0FAD0E0FB120C88FF60AAEBC00F
:10096000E0EAC0E0E9C0E012083BD0E02401F9D0A1
:10097000E03400FAD0E0FBE53D0460DCD53DD980F1
:10098000877BFF7A0A798FD202809C791080027966
:1009900008C206C2088008D2D5790A8004790AC242
:1009A000D5E53D047002F53DE4FAFDFEFF120800B6
:1009B000FC7B08200113120800FD7B1030000A1296
:1009C0000800FE120800FF7B20EC3382D592D55040
:1009D00013C3E43000069FFFE49EFEE42001039D64
:1009E000FDE49CFCE4CBF8C201EC700CCFCECDCC86
:1009F000E824F8F870F38017C3EF33FFEE33FEED11
:100A000033FDEC33FCEB33FB994002FB0FD8E9EBF1
:100A1000300105F8D0E0C448B201C0E00AEC4D4E08
:100A20004F78207B0070C2EAB53D0040BCC0E012A8
:100A30000A95D0F0D0E0200104C4C0E0C4B201C0E7
:100A4000F0120824D0F0D5F0EB020874120CF00973
:100A50001153098B5808E24C08DE42098F4F099761
:0F0A60004409974908F743099D550981460981C3
:100A6F00450981470B3D5008E62D08EA2E090D2B4D
:100A7F0008EE23090B200B262A08A64800000905BB
:100A8F003F3F3F00790AA2D5200314300509B91062
:100A9F00020404B9080104A2D52006025001042063
:100AAF0002689202B53C005034C0E07F2030031939
:100ABF007F30A20272067205500F120AECC202C2F8
:100ACF0006C205C2087F30800F300503E9C0E0126F
:100ADF00083B300503D0E0F9D0E0B53CCC3005172A
:100AEF007F30B9100C12083B7F583004077F788095
:100AFF0003B9080312083B3002057F2D02083B7F24
:100B0F00202008F87F2B2006F322920280CF286E38
:100B1F00756C6C2900D2011208003001F8C20178FF
:100B2F003C30D50108F60208A62D5043495812084B
:100B3F00002403B405004001E4900B389312082CF5
:0D0B4F00743A12082CD203753C0402098B85
:100D2200020B5CE493A3F8E493A34003F68001F280
:100D320008DFF48029E493A3F85407240CC8C333D2
:100D4200C4540F4420C8834004F456800146F6DFA1
:100D5200E4800B0102040810204080900EA7E47E7C
:100D6200019360BCA3FF543F30E509541FFEE49396
:100D7200A360010ECF54C025E060A840B8E493A35D
:100D8200FAE493A3F8E493A3C8C582C8CAC583CA88
:100D9200F0A3C8C582C8CAC583CADFE9DEE780BE40
:010EAF000042
:100CA100BB010CE58229F582E5833AF583E0225008
:100CB10006E92582F8E622BBFE06E92582F8E22252
:0D0CC100E58229F582E5833AF583E493226C
:100CCE00BB010689828A83F0225002F722BBFE0105
:020CDE00F322FF
:100CE000FAE6FB0808E6F925F0F618E6CA3AF62215
:100CF000D083D082F8E4937012740193700DA3A393
:100D000093F8740193F5828883E4737402936860A6
:060D1000EFA3A3A380DFA6
:100DCA00EFB40A07740D120DD5740A309811A89958
:100DDA00B8130CC2983098FDA899C298B811F63089
:070DEA0099FDC299F5992261
:00000001FF
